:020000040000FA
:100000000C945D000C9485000C9485000C94850084
:100010000C9485000C9485000C9485000C9485004C
:100020000C9485000C9485000C9485000C9485003C
:100030000C9485000C9485000C9485000C9485002C
:100040000C9443070C9485000C9411070C94EB0658
:100050000C9485000C9485000C9485000C9485000C
:100060000C948D070C9485000000000024002700EC
:100070002A0000000000250028002B0004040404CE
:100080000404040402020202020203030303030342
:10009000010204081020408001020408102001021F
:1000A00004081020000000080002010000030407FB
:1000B0000000000000000000AC0811241FBECFEFBC
:1000C000D8E0DEBFCDBF14E0A0E0B1E0ECEAFFE194
:1000D00002C005900D92A032B107D9F725E0A0E249
:1000E000B4E001C01D92AE3DB207E1F710E0CDE5EE
:1000F000D0E004C02197FE010E94F60CCC35D10758
:10010000C9F70E94E5080C94D40F0C9400000895E0
:100110000895AF92BF92CF92DF92EF92FF920F932A
:100120001F93CF93DF936C017B018B01040F151F8D
:10013000EB015E01AE18BF08C017D10759F06991F5
:10014000D601ED91FC910190F081E02DC601099559
:10015000892B79F7C501DF91CF911F910F91FF9006
:10016000EF90DF90CF90BF90AF900895FC01538D3A
:10017000448D252F30E0842F90E0821B930B541781
:1001800010F0CF96089501970895FC01918D828D0E
:10019000981761F0A28DAE0FBF2FB11D5D968C91A7
:1001A000928D9F5F9F73928F90E008958FEF9FEFE6
:1001B0000895FC01918D828D981731F0828DE80FA2
:1001C000F11D858D90E008958FEF9FEF0895FC015C
:1001D000918D228D892F90E0805C9F4F821B910929
:1001E0008F739927089585E395E00E94E70021E049
:1001F000892B09F420E0822F089580E090E0892B7C
:1002000029F00E94F30081110C9400000895FC0174
:10021000A48DA80FB92FB11DA35ABF4F2C91848D67
:1002200090E001968F739927848FA689B7892C93C4
:10023000A089B1898C91837080648C93938D848D17
:10024000981306C00288F389E02D80818F7D80831A
:100250000895EF92FF920F931F93CF93DF93EC01DA
:1002600081E0888F9B8D8C8D98131AC0E889F9895D
:10027000808185FF15C09FB7F894EE89FF89608360
:10028000E889F98980818370806480839FBF81E0E1
:1002900090E0DF91CF911F910F91FF90EF90089523
:1002A000F62E0B8D10E00F5F1F4F0F731127E02EFE
:1002B0008C8D8E110CC00FB607FCFACFE889F98936
:1002C000808185FFF5CFCE010E940701F1CFEB8D34
:1002D000EC0FFD2FF11DE35AFF4FF0829FB7F8940A
:1002E0000B8FEA89FB8980818062CFCFCF93DF9328
:1002F000EC01888D8823B9F0AA89BB89E889F9893E
:100300008C9185FD03C0808186FD0DC00FB607FC72
:10031000F7CF8C9185FFF2CF808185FFEDCFCE01A5
:100320000E940701E9CFDF91CF91089590E0FC0191
:10033000EC55FF4F2491FC01E057FF4F3491FC0135
:10034000E458FF4FE491EE23C9F0222339F0233023
:1003500001F1A8F4213019F1223029F1F0E0EE0F7B
:10036000FF1FEE58FF4FA591B4918FB7F894EC9111
:10037000611126C030953E233C938FBF08952730EE
:10038000A9F02830C9F0243049F7809180008F7D92
:1003900003C0809180008F7780938000DFCF84B589
:1003A0008F7784BDDBCF84B58F7DFBCF8091B0008C
:1003B0008F778093B000D2CF8091B0008F7DF9CF3E
:1003C0003E2BDACFCF93DF9390E0FC01E057FF4F55
:1003D000249184589F4FFC0184918823D1F090E0B0
:1003E000880F991FFC01E859FF4FA591B491FC01BA
:1003F000EE58FF4FC591D49161110EC09FB7F8948C
:100400008C91E22FE0958E238C932881E223E88360
:100410009FBFDF91CF9108958FB7F894EC91E22BB5
:10042000EC938FBFF6CF3FB7F8948091D7049091AB
:10043000D804A091D904B091DA0426B5A89B05C0D0
:100440002F3F19F00196A11DB11D3FBFBA2FA92F53
:10045000982F8827BC01CD01620F711D811D911D50
:1004600042E0660F771F881F991F4A95D1F70895BC
:100470008F929F92AF92BF92CF92DF92EF92FF92B4
:100480004B015C010E9413026B017C010E9413026C
:100490006C197D098E099F09683E7340810591059D
:1004A000A8F321E0821A9108A108B10888EEC80ECD
:1004B00083E0D81EE11CF11C81149104A104B10455
:1004C00029F7FF90EF90DF90CF90BF90AF909F9073
:1004D0008F90089520918804260F3327331F2132EF
:1004E0003105ECF42091AC04FC0190E080E0243074
:1004F00069F082E00895A09188042191AC014859E7
:100500005B4FA40FB52FB11D2C930196861798F35E
:1005100080918804680F6093880480E0089581E0EA
:1005200008951092AC0481E08093AE041092AD0463
:1005300061E082E10E94960161E083E10E94960100
:10054000E9EBF0E080818E7F808380818D7F8083E6
:1005500088E48093B80085E48093BC000895CF932D
:10056000DF9391E0909367048823B9F0C091B800BD
:10057000D091BA008091BC008A7B8093BC0060E07F
:1005800082E10E94960160E083E10E9496010E9450
:100590009102D093BA00C093B800DF91CF91089533
:1005A0000895E091E2048091E104E81730F4F0E06E
:1005B000EE5BFB4F808190E008958FEF9FEF0895F1
:1005C0009091E2048091E1042FEF3FEF981748F4F7
:1005D000E92FF0E0EE5BFB4F208130E09F5F9093CE
:1005E000E204C90108958091E1049091E204891B1D
:1005F000990B0895CF92DF92EF92FF920F931F9382
:10060000CF93DF937C01CB018A0120914104222307
:1006100089F0EB016B01C40ED51ECC15DD0569F028
:100620006991D701ED91FC910190F081E02DC70116
:100630000995F3CF642F0E946A02C801DF91CF9120
:100640001F910F91FF90EF90DF90CF900895CF937F
:10065000DF931F92CDB7DEB7698320914104222337
:10066000F9F02091DF04203258F021E030E0FC0165
:100670003383228390E080E00F90DF91CF91089543
:100680008091E004E82FF0E0EF5DFB4F99819083CB
:100690008F5F8093E0048093DF0481E090E0ECCFF3
:1006A00061E0CE0101960E946A02F7CF90E080E0FF
:1006B0000895FC0101900020E9F73197AF01481B34
:1006C000590BBC0185E395E00C9489008F929F92B1
:1006D000AF92BF920F931F93CF93DF93CDB7DEB747
:1006E000A1970FB6F894DEBF0FBECDBF19A242305E
:1006F00008F44AE08E010F5D1F4F842E912CB12C1F
:10070000A12CA50194010E94960CE62FB901CA0103
:10071000EA30F4F4E05DD801EE938D01232B242B15
:10072000252B79F790E080E0109719F0CD010E9419
:100730005903A1960FB6F894DEBF0FBECDBFDF916F
:10074000CF911F910F91BF90AF909F908F90089580
:10075000E95CE1CFCF93DF930E945903EC0184E27F
:1007600091E00E9459038C0F9D1FDF91CF91089556
:10077000CF93DF93682F70E090E080E04AE00E9422
:100780006603EC0184E291E00E9459038C0F9D1FE7
:10079000DF91CF910895CF92DF92EF92FF920F9366
:1007A0001F93CF93DF9381E08093410480E1809396
:1007B00020041092E0041092DF04C7EED4E003EFAF
:1007C00014E0F8806981229682ED95E00E9427036B
:1007D0006F2D82ED95E00E9427030C171D0789F706
:1007E000C091DF04C13208F0DBC00E9413026B012C
:1007F0007C018091AC0481116BC082E08093AC04D9
:1008000081E08093AE048FEF8093AB041092D0040C
:10081000C093CF04A1E2B4E0EFEAF4E080E0C813B3
:1008200097C01092D1048091D10480628093D1044A
:100830008091AD04813009F08FC01092AD040E9408
:1008400013026B017C018091D1048093BB008091E5
:10085000630490916404A0916504B0916604892BAF
:100860008A2B8B2BA1F00E9413020091630410913C
:10087000640420916504309166046C197D098E0929
:100880009F09061717072807390708F442C0809107
:10089000BC0083FDD8CF85EC8093BC000E9413027E
:1008A0006B017C018091AC04823009F457C08091C7
:1008B000AB04C0E08F3F91F18091AB04C2E0803285
:1008C00069F18091AB04C4E0803341F5C3E026C0F8
:1008D0008091630490916404A0916504B0916604D2
:1008E000892B8A2B8B2B09F484CF0E941302009151
:1008F00063041091640420916504309166046C19BE
:100900007D098E099F09061717072807390708F080
:1009100070CF809162040E94AF02C5E01092E004A3
:100920001092DF041092410481E0CC2341F087E271
:1009300091E00E94AA038C2F0E94B80380E0DF910F
:10094000CF911F910F91FF90EF90DF90CF9008957E
:100950009D9191938F5F63CF85EE9ECF80916304CD
:1009600090916404A0916504B0916604892B8A2B50
:100970008B2B09F497CF0E9413020091630410910E
:10098000640420916504309166046C197D098E0918
:100990009F09061717072807390708F083CFB9CF33
:1009A000C1E0BCCFCF92DF92EF92FF92CF93DF9363
:1009B0006C01990FEE08FF08F7FE1FC06DE285E39A
:1009C00095E00E942901EC0166277727CB016C197D
:1009D0007D098E099F094AE00E946603C80FD91F4E
:1009E00084E291E00E9459038C0F9D1FDF91CF910B
:1009F000FF90EF90DF90CF9008954AE0C701B601D5
:100A00000E946603EC01ECCF8F929F92AF92BF924F
:100A1000CF92DF92EF92FF920F931F93CF93DF93CA
:100A20000E9413026B017C018091AC04811165C0AE
:100A300081E08093AC048093AE049FEF9093AB046D
:100A40001092D0049FE19093CF048093D1048091C1
:100A5000D10480628093D1048091AD04813009F08B
:100A600097C01092AD040E9413026B017C0180912B
:100A7000D1048093BB008091630490916404A091A1
:100A80006504B0916604892B8A2B8B2BA1F00E9400
:100A900013028090630490906404A0906504B09069
:100AA00066046C197D098E099F0986169706A806AB
:100AB000B90608F443C08091BC0083FDD8CF85EC13
:100AC0008093BC000E9413026B017C018091AC04F6
:100AD000813009F45FC08091D004803208F07CC07E
:100AE0008091D004EFEAF4E0A2E4B4E090E098173B
:100AF00051F121912D939F5FFACF809163049091E2
:100B00006404A0916504B0916604892B8A2B8B2B19
:100B100009F48ACF0E9413028090630490906404C9
:100B2000A0906504B09066046C197D098E099F0938
:100B300086169706A806B90608F076CF809162045B
:100B40000E94AF0280E01092E2048093E1048032C0
:100B5000F1F7CAE0D0E082ED95E00E94E002F82EC5
:100B600082ED95E00E94E002FE01EE0FFF1FED51C5
:100B7000FB4F00E0802B9F2991838083C930D105F2
:100B800069F12196C031D10531F7D0E0C0E0E3CF63
:100B900085EE96CF8091630490916404A0916504E2
:100BA000B0916604892B8A2B8B2B09F48FCF0E947E
:100BB00013028090630490906404A0906504B09048
:100BC00066046C197D098E099F0986169706A8068A
:100BD000B90608F07BCFB2CF80E284CFDF91CF910E
:100BE0001F910F91FF90EF90DF90CF90BF90AF904B
:100BF0009F908F9008950E9404058091F904909130
:100C0000FA04937085599C4F0895CF93DF93C82FB2
:100C10000E9404058091E7049091E8049C013B7FC9
:100C2000C11121C0997F9093E8048093E7048091DB
:100C3000E7049091E80491609093E8048093E704BE
:100C40000E94CB030E9404058091F7049091F80460
:100C500096FD0FC083E391E00E94AA030E94FB056A
:100C60000E94D204EFCF32603093E8042093E7046F
:100C7000DECF0E940405C091F704D091F804CC2780
:100C8000D0728091E7049091E8049E7F9093E804ED
:100C90008093E7040E94CB030E9404058091F7042F
:100CA0009091F80496FF05C083E491E00E94AA03A6
:100CB000F3CFCD2B41F08EE491E00E94AA0380E0B7
:100CC000DF91CF9108958DE591E00E94AA0381E024
:100CD000F7CFCF93DF932AE0289FE001299FD00D23
:100CE0001124CE52D2420E9404052091E904309191
:100CF000EA0422273E7F3068CE016AE070E00E945D
:100D0000C70C262B372B3093EA042093E9040E946A
:100D1000CB030E9404058091F7049091F80496FD9E
:100D200005C08BE691E00E94AA03F3CF0E94040560
:100D30008091E9049091EA049F779093EA0480936C
:100D4000E9040E94CB030E9404058091F70490916E
:100D5000F80496FF05C083E491E00E94AA03F3CF54
:100D6000DF91CF91089585ED8093BC00809163045D
:100D700090916404A0916504B09166040796A11D4A
:100D8000B11D23E0B695A795979587952A95D1F73C
:100D90002091BC0024FD03C01092AC040895409142
:100DA0006304509164046091650470916604452B5E
:100DB000462B472B69F30097A105B10541F025E3C8
:100DC0002A95F1F700000197A109B109E1CF8091BF
:100DD00062040C94AF021F920F920FB60F9211246F
:100DE0002F933F934F935F936F937F938F939F9333
:100DF000AF93BF93EF93FF9385E395E00E940701C4
:100E0000FF91EF91BF91AF919F918F917F916F91E2
:100E10005F914F913F912F910F900FBE0F901F90B8
:100E200018951F920F920FB60F9211242F938F9344
:100E30009F93EF93FF93E0914505F09146058081E4
:100E4000E0914B05F0914C0582FD1BC09081809193
:100E50004E058F5F8F7320914F05821741F0E0910F
:100E60004E05F0E0EB5CFA4F958F80934E05FF91B5
:100E7000EF919F918F912F910F900FBE0F901F9028
:100E800018958081F4CF1F920F920FB60F92112404
:100E90002F933F938F939F93AF93BF938091D304EE
:100EA0009091D404A091D504B091D6043091D2048D
:100EB00023E0230F2D3758F50196A11DB11D209376
:100EC000D2048093D3049093D404A093D504B09318
:100ED000D6048091D7049091D804A091D904B09100
:100EE000DA040196A11DB11D8093D7049093D80414
:100EF000A093D904B093DA04BF91AF919F918F91E1
:100F00003F912F910F900FBE0F901F90189526E8DC
:100F1000230F0296A11DB11DD2CF1F920F920FB6C3
:100F20000F9211242F933F934F935F936F937F936F
:100F30008F939F93AF93BF93EF93FF938091B900EB
:100F4000887F803609F44AC0F0F5883209F4A7C0DA
:100F500018F5803109F49BC0B8F4882309F4F9C06E
:100F6000883009F494C0FF91EF91BF91AF919F91A8
:100F70008F917F916F915F914F913F912F910F9042
:100F80000FBE0F901F901895883109F488C08032E9
:100F900051F78093AB0414C0803409F49DC040F431
:100FA0008033B9F38833F9F68093AB0485ECB0C095
:100FB000803509F485C0883509F496C0883499F6DF
:100FC0000E94B306D0CF883909F48CC038F5883731
:100FD00029F050F4883611F0803729F683E08093A9
:100FE000AC041092AA0457C0883809F47BC0803939
:100FF00019F0803809F0B7CF8091AA04803208F048
:1010000071C0E091AA0481E08E0F8093AA048091C0
:10101000BB00F0E0E657FB4F80833DC0803B39F0DA
:10102000E0F4803A09F479C0883A09F09CCF84E072
:101030008093AC041092890410928804E091DD043E
:10104000F091DE0409958091880481110FC081E040
:10105000809388041092680409C0803C09F4A6CFEC
:10106000883C09F4A3CF883B09F07DCFE091890447
:1010700081E08E0F80938904F0E0E859FB4F808176
:101080008093BB00909189048091880429C080914D
:10109000D1048093BB0085EC8093BC0064CF909119
:1010A000D0048091CF04981758F5E091D00481E0E6
:1010B0008E0F8093D004F0E0E155FB4F8081E9CFA3
:1010C000E091D00481E08E0F8093D0048091BB002A
:1010D000F0E0E155FB4F80839091D0048091CF04E4
:1010E0009817C8F285E8D8CFE091D00481E08E0F40
:1010F0008093D0048091BB00F0E0E155FB4F8083EA
:101100008091AE0481115CCF81E08093AD0484EACC
:101110008093BC001092AC0426CF85EC8093BC0079
:101120001092AC048091AA04803230F4E091AA04B9
:10113000F0E0E657FB4F10826091AA0470E0E09166
:10114000DB04F091DC048AE894E009951092AA048B
:101150000ACF1092AB0434CFE5E3F5E0138212829C
:1011600088EE93E0A0E0B0E084839583A683B78304
:1011700024E031E03183208325EC30E0358724877B
:1011800024EC30E03787268720EC30E0318B208B51
:1011900021EC30E0338B228B22EC30E0358B248B3A
:1011A00026EC30E0378B268B118E128E138E148E28
:1011B000E2EDF5E01382128284839583A683B783E0
:1011C00086E191E0918380830895789484B582606C
:1011D00084BD84B5816084BD85B5826085BD85B5DB
:1011E000816085BD80916E00816080936E00109259
:1011F00081008091810082608093810080918100D4
:101200008160809381008091800081608093800064
:101210008091B10084608093B1008091B0008160C2
:101220008093B00080917A00846080937A008091EE
:101230007A00826080937A0080917A008160809346
:101240007A0080917A00806880937A001092C100C1
:1012500061E08DE00E94E20160E08EE00E94E20128
:10126000E0914505F091460582E08083E0914505D7
:10127000F09146051082E0914105F09142051082FF
:10128000E0914305F091440580E1808310924D0583
:10129000E0914905F0914A0586E08083E091470599
:1012A000F0914805808180618083E0914705F0914D
:1012B0004805808188608083E0914705F09148056A
:1012C000808180688083E0914705F09148058081A6
:1012D0008F7D808386E291E00E94AA0382E791E0FD
:1012E0000E94AA0361E082E00E94E20161E082E1E3
:1012F0000E94E20160E082E10E94960160E082E0EB
:101300000E94960161E070E080E090E00E94380267
:1013100061E082E00E94960161E070E080E090E090
:101320000E9438021092E2041092E1041092E0044C
:101330001092DF040E94910287E890E09093DE040F
:101340008093DD0488E890E09093DC048093DB04D4
:101350000E94040580E091E89093F2048093F104E8
:101360000E94CB0364EF71E080E090E00E943802BD
:101370000E94040581E090E49093E8048093E704E0
:101380008091EB049091EC0498619093EC0480932D
:10139000EB048091ED049091EE04807F8161909345
:1013A000EE048093ED040E94CB036EE670E080E0D3
:1013B00090E00E9438028DEC93E00E94690693EA67
:1013C000292E91E0392E23E0822E25E0922E44240E
:1013D0004A9433E0532E612C712C86E291E00E94F6
:1013E000AA038EE891E00E94AA030E94FB058C01EB
:1013F0006AE070E00E94C70C9F938F937F936F9376
:101400003F922F929F928F920E94FC0C83E095E076
:101410000E94AA0381EC91E00E94AA038FED91E063
:101420000E94AA038FEE91E00E94AA038EEF91E042
:101430000E94AA0380E192E00E94AA038BE192E05D
:101440000E94AA0388E292E00E94AA0388E392E045
:101450000E94AA038BE492E00E94AA038EE592E028
:101460000E94AA0380E792E00E94AA038AE792E022
:101470000E94AA0385E892E00E94AA038BEA93E007
:101480000E94AA038DB79EB708960FB6F8949EBF28
:101490000FBE8DBF85E395E00E94E700892BD1F355
:1014A00085E395E00E94C500C82F813349F482EEA0
:1014B00091E00E94AA0381E690E00E9469068DCF28
:1014C000823399F482E992E00E94AA030E94040503
:1014D0008091E7049091E80420E492279093E80437
:1014E0008093E7040E94CB0378CF833309F074C064
:1014F0000E94040586E291E00E94AA038EE992E030
:101500000E94AA038091F7049091F80497FF5BC0B2
:101510008CEA92E00E94AA038091F8048695837079
:1015200009F044C08DEB92E00E94AA038091F70479
:101530009091F80496FF04C08DE093E00E94AA0306
:101540008091F7049091F80495FF40C08EE193E0FC
:101550000E94AA038091F7049091F80494FF04C0BC
:101560008FE393E00E94AA038091F7049091F8041E
:1015700093FF04C086E593E00E94AA038091F704DC
:101580009091F80490FF25C083E693E00E94AA039F
:101590001091F70486E793E00E94AA03812F0E942E
:1015A000B8038EE793E00E94AA0317CF813019F4A5
:1015B0008EEC92E0B9CF823019F480EE92E0B4CF95
:1015C00082EF92E0B1CF83E093E0AECF8BE293E085
:1015D000BFCF8EE693E0DACF81E0C43319F0C53394
:1015E00021F480E00E940506F8CEC63309F061C000
:1015F00086E893E00E94AA0385E395E00E94E70055
:10160000181619060CF443C00E9404058091F704D3
:101610009091F80497FF44C08BE993E00E94AA03DD
:10162000B090FB04A090FC04D090FD04C090FE0498
:10163000F090FF04E0900005109101050091020573
:1016400088EA93E00E94AA038A2D0E94B8038B2D9A
:101650000E94B8038C2D0E94B8038D2D0E94B80300
:101660008E2D0E94B8038F2D0E94B803802F0E94F8
:10167000B803812F0E94B8038EEA93E00E94AA0368
:1016800068E270E080E090E00E943802B5CF85E328
:1016900095E00E94C5008837910509F0B5CF9DCE31
:1016A00081EB93E00E94AA036EE170E080E090E09D
:1016B000EBCFC83371F483E592E00E94AA038091D6
:1016C000EB049091EC0483609093EC048093EB0422
:1016D00009CFC93351F486E692E00E94AA038091B3
:1016E000EB049091EC048E7FEFCFC23759F58BE37A
:1016F00092E00E94AA030E940405C3EED4E010E029
:1017000000E08881998122969F938F931F930F9376
:1017100088EB93E09F938F939F928F920E94FC0C93
:1017200083E095E00E94AA030F5F1F4F8DB79EB71D
:1017300008960FB6F8949EBF0FBE8DBF00311105FD
:1017400001F74BCEC43709F066C08CEC93E00E94E1
:10175000AA0385E395E00E94E700892B09F052C0B7
:1017600080E190E0F12CE12C20E420937C0020919A
:101770007A00206420937A0020917A0026FDFCCF25
:101780003091780020917900232732272327E20E19
:10179000F31E019749F7F7FE03C08FE0E80EF11C36
:1017A00084E0F594E7948A95E1F78CED93E00E944C
:1017B000AA03C7010E94D2042CEC30E0D7010E949A
:1017C000DB0CA30192010E94770C69017A019BE670
:1017D000C90E93E0D91EE11CF11C83EE93E00E9438
:1017E000AA03C6010E94D204C016D10619F0C60190
:1017F0000E94690664E670E080E090E00E94380292
:101800008601A7CF85E395E00E94C5008837910542
:1018100009F0A6CFE2CDC63709F04FC086E291E0CD
:101820000E94AA038EEE93E00E94AA0386EF93E043
:101830000E94AA038CEF93E00E94AA0384E094E044
:101840000E94AA0385E395E00E94E700892BD1F36B
:1018500085E395E00E94C5008B32C9F40E9404051F
:101860002091ED043091EE04122F1F701F5F207F36
:10187000212B3093EE042093ED040E94CB038CE0E7
:1018800094E00E94AA03812F0E94B803DBCF8D321F
:1018900089F40E9404058091ED049091EE04182FC4
:1018A0001F7009F01150807F812B9093EE0480937C
:1018B000ED04E3CF883731F690CDC73721F40E948D
:1018C000FB050196FACDC33721F40E94FB05019771
:1018D000F4CD85E194E00E94AA036C2F85E395E0A6
:1018E0000E94290184E291E00E94590376CD052EE1
:1018F00097FB1EF400940E948E0C57FD07D00E94A7
:10190000960C07FC03D04EF40C948E0C5095409529
:10191000309521953F4F4F4F5F4F0895909580959B
:10192000709561957F4F8F4F9F4F0895A1E21A2EBA
:10193000AA1BBB1BFD010DC0AA1FBB1FEE1FFF1F73
:10194000A217B307E407F50720F0A21BB30BE40BC3
:10195000F50B661F771F881F991F1A9469F760950A
:101960007095809590959B01AC01BD01CF010895C4
:10197000A29FB001B39FC001A39F700D811D1124D0
:10198000911DB29F700D811D1124911D089597FB2B
:10199000072E16F4009407D077FD09D00E94E20CC0
:1019A00007FC05D03EF4909581959F4F0895709562
:1019B00061957F4F08950E94B80CB7FF0895821B70
:1019C000930B0895AA1BBB1B51E107C0AA1FBB1FA5
:1019D000A617B70710F0A61BB70B881F991F5A95BB
:1019E000A9F780959095BC01CD010895EE0FFF1FDA
:1019F0000590F491E02D0994AEE0B0E0E2E0FDE066
:101A00000C94AB0F0D891E8986E08C831A830983A1
:101A10008FEF9FE79E838D83AE01475E5F4F6F8997
:101A2000788DCE0101960E941F0D2F813885020FFF
:101A3000131FF80110822E96E4E00C94C70FABE060
:101A4000B0E0E5E2FDE00C949D0F7C013B018A01D2
:101A5000FC0117821682838181FFC8C1CE010196E5
:101A60005C01F7019381F30193FD859193FF8191CF
:101A70003F01882309F453C1853239F493FD8591E0
:101A800093FF81913F01853229F4B70190E00E94D4
:101A90000F0FE7CF912C212C312CFFE1F31538F0FB
:101AA0008B3211F190F4803209F1833229F137FC45
:101AB0003CC020ED280F2A3050F536FE20C08AE0C9
:101AC000989E200D1124922E06C08D3291F0803305
:101AD00071F7689430F8F30193FD859193FF81913C
:101AE0003F018111DACF21C0689431F8689432F84F
:101AF000F2CF689433F8EFCF689434F8ECCFEAE093
:101B00002E9E200D1124222E689435F8E4CF8E32BB
:101B100029F436FC04C1689436F8DDCF8C3619F40C
:101B2000689437F8D8CF8836B1F2982F9F7D9554B6
:101B30009330E0F08336A1F18337C1F1833509F0AA
:101B400063C02801F2E04F0E511CF801C080D18023
:101B5000692D70E036FC02C06FEF7FEFC6010E9476
:101B6000F90E4C01689437F882010AC00C5F1F4FD0
:101B7000FFE3F98388248394912C6501E89437F876
:101B800033FE2DC0522C8114910471F5552009F4B7
:101B900068CFB70180E290E00E940F0F5A94F6CF11
:101BA000F801808189830E5F1F4FE4CF2801F2E0A6
:101BB0004F0E511CF801C080D180692D70E036FCB9
:101BC00002C06FEF7FEFC6010E94040F4C0182013B
:101BD000D5CFB70180E290E00E940F0F2A9428141D
:101BE000190409F0B0F7CECFF60137FC859137FE26
:101BF00081916F01B70190E00E940F0F51105A942C
:101C0000F1E08F1A9108BFCF843619F0893609F0B8
:101C100077C0F80137FE6BC060817181828193814A
:101C20000C5F1F4FF32DFF763F2E97FF09C0909555
:101C30008095709561957F4F8F4F9F4F689437F8CF
:101C40002AE030E0A5010E943F0FC82ECA188C2C54
:101C5000432C36FE0CC0E89440F8C91440F434FE1E
:101C600005C032FC03C0F32DFE7E4F2E892C44FEAE
:101C700095C0FE01EC0DF11D8081803309F087C015
:101C8000242D297E422E842D8870582E43FC95C029
:101C900040FE8FC09C2C821418F42C0C922C9818A7
:101CA00044FE91C0B70180E390E00E940F0F42FE16
:101CB00009C088E790E041FE02C088E590E0B701E6
:101CC0000E940F0FC91408F48AC0CA94D12C9FEF48
:101CD000C91AD90ACA0CDB1CF60182916F01B7013F
:101CE00090E00E940F0FAC14BD04B1F74FCF60819C
:101CF0007181072E000C880B990B0E5F1F4F92CF3E
:101D0000D32CE894D4F82AE030E0853739F1232D3C
:101D1000297FD22E8F3601F148F48835A9F0F701DA
:101D2000868197812B96E2E10C94B90F803749F0B8
:101D30008837A9F7D4FE02C06894D2F820E130E0D9
:101D40000DC06894D4F8F6CF34FE03C0822F8660AD
:101D5000D82E20E132E002C028E030E0F801D7FEC2
:101D60000FC060817181828193810C5F1F4FA5013B
:101D70000E943F0FC82ECA183D2CE89437F867CF51
:101D80006081718190E080E00E5F1F4FF0CF42FCD8
:101D900002C0839478CF8394839475CF842D867802
:101DA00009F471CFF6CFB70180E290E00E940F0FE7
:101DB00083948214C0F3512C73CF522C5818821480
:101DC00008F46ECFF8CF842D867809F47BCF8BE2B0
:101DD00041FE80E247FC8DE2B70190E071CFB70190
:101DE00080E390E00E940F0F9A946CCF8FEF9FEFEB
:101DF00099CFFC010590615070400110D8F7809593
:101E000090958E0F9F1F0895FC01615070400190C6
:101E10000110D8F7809590958E0F9F1F08950F930E
:101E20001F93CF93DF93182F092FEB018B8181FD37
:101E300009C01FEF0FEF812F902FDF91CF911F91DE
:101E40000F91089582FF14C02E813F818C819D8166
:101E5000281739073CF4E881F981CF01019699836D
:101E6000888310838E819F8101969F838E83E3CF29
:101E7000E885F985812F0995892BA1F3DACFFA013D
:101E8000AA27283051F1203181F1E8946F936E7FB9
:101E90006E5F7F4F8F4F9F4FAF4FB1E03ED0B4E0AA
:101EA0003CD0670F781F891F9A1FA11D680F791FEB
:101EB0008A1F911DA11D6A0F711D811D911DA11DFC
:101EC00020D009F468943F912AE0269F112430190C
:101ED000305D3193DEF6CF010895462F4770405DA7
:101EE0004193B3E00FD0C9F7F6CF462F4F70405D56
:101EF0004A3318F0495D31FD4052419302D0A9F7B1
:101F0000EACFB4E0A6959795879577956795BA95AA
:101F1000C9F700976105710508959B01AC010A2E70
:101F200006945795479537952795BA95C9F7620F47
:101F3000731F841F951FA01D08952F923F924F92EB
:101F40005F926F927F928F929F92AF92BF92CF9249
:101F5000DF92EF92FF920F931F93CF93DF93CDB752
:101F6000DEB7CA1BDB0B0FB6F894DEBF0FBECDBFCA
:101F700009942A88398848885F846E847D848C849B
:101F80009B84AA84B984C884DF80EE80FD800C81A4
:101F90001B81AA81B981CE0FD11D0FB6F894DEBF87
:101FA0000FBECDBFED010895F894FFCF00000000F3
:101FB00029018900B6007601E700C500D9000000BC
:101FC00000002703FA025603D002F302E002D10216
:101FD0000D0A005772697465204661696C3A0054B5
:101FE0007279696E672073746174696F6E3A005715
:101FF000616974696E672E2E2E005365656B206CC7
:10200000696D697420686974005365656B20636F3E
:102010006D706C6574650054756E696E6700496E0D
:10202000697469616C697A696E672049324320611D
:102030006E6420536934373033005369343730339A
:1020400020436F6E66696775726174696F6E0043D5
:10205000757272656E742073746174696F6E3A2064
:10206000253032642E253031644D487A00436F6E3E
:102070006669677572656420666F72204575726F58
:102080007065616E20526164696F0031292054755A
:102090006E6520746F2039372E33003229204D753C
:1020A0007465204F6E2F4F66660033292044697394
:1020B000706C6179207374617475730034292053D6
:1020C00065656B207570003529205365656B20644C
:1020D0006F776E00362920506F6C6C20666F72200F
:1020E000524453007229205072696E7420726567E1
:1020F000697374657273003829205475726E2047B5
:1021000050494F3120486967680039292054757259
:102110006E204750494F31204C6F7700762920566A
:102120006F6C756D650077292054756E652075702C
:102130000073292054756E6520646F776E004D75AD
:10214000746520746F67676C6500526164696F2005
:102150005374617475733A002028524453204176B9
:1021600061696C61626C65290020284E6F205244C1
:1021700053206572726F727329002028312D32202E
:10218000524453206572726F727329002028332DD8
:102190003520524453206572726F727329002028D3
:1021A000362B20524453206572726F7273290020BF
:1021B000284E6F205244532900202854756E652004
:1021C000436F6D706C657465290020285365656BDD
:1021D000204661696C290020285365656B20537582
:1021E000636365737366756C21290020284146433B
:1021F0002F496E76616C6964204368616E6E656C10
:10220000290020285244532053796E636829002006
:102210002853746572656F21290020284D6F6E6FF9
:1022200029002028525353493D00206F662037353E
:102230002900506F6C6C20524453202D207820745C
:102240006F20657869740057652068617665205253
:10225000445321005244533A20002021004E6F2065
:102260005244530052656720307825303258203D63
:1022700020307825303458005472696D20706F74A6
:102280002074756E696E67005472696D3A20002083
:1022900073746174696F6E3A2000566F6C756D656A
:1022A0003A002B29205570002D2920446F776E00AD
:1022B0007829204578697400566F6C756D653A20F1
:0C22C0000043686F696365203D2000004A
:107E0000112484B714BE81FFF0D085E080938100F7
:107E100082E08093C00088E18093C10086E0809377
:107E2000C20080E18093C4008EE0C9D0259A86E02C
:107E300020E33CEF91E0309385002093840096BBD3
:107E4000B09BFECF1D9AA8958150A9F7CC24DD24C4
:107E500088248394B5E0AB2EA1E19A2EF3E0BF2EE7
:107E6000A2D0813461F49FD0082FAFD0023811F036
:107E7000013811F484E001C083E08DD089C08234E0
:107E800011F484E103C0853419F485E0A6D080C0E4
:107E9000853579F488D0E82EFF2485D0082F10E0AE
:107EA000102F00270E291F29000F111F8ED06801E7
:107EB0006FC0863521F484E090D080E0DECF843638
:107EC00009F040C070D06FD0082F6DD080E0C81688
:107ED00080E7D80618F4F601B7BEE895C0E0D1E017
:107EE00062D089930C17E1F7F0E0CF16F0E7DF06D8
:107EF00018F0F601B7BEE89568D007B600FCFDCFD4
:107F0000A601A0E0B1E02C9130E011968C91119780
:107F100090E0982F8827822B932B1296FA010C0160
:107F200087BEE89511244E5F5F4FF1E0A038BF0790
:107F300051F7F601A7BEE89507B600FCFDCF97BE46
:107F4000E89526C08437B1F42ED02DD0F82E2BD052
:107F50003CD0F601EF2C8F010F5F1F4F84911BD097
:107F6000EA94F801C1F70894C11CD11CFA94CF0C13
:107F7000D11C0EC0853739F428D08EE10CD085E9AC
:107F80000AD08FE07ACF813511F488E018D01DD067
:107F900080E101D065CF982F8091C00085FFFCCF94
:107FA0009093C60008958091C00087FFFCCF809118
:107FB000C00084FD01C0A8958091C6000895E0E648
:107FC000F0E098E1908380830895EDDF803219F02E
:107FD00088E0F5DFFFCF84E1DECF1F93182FE3DFCA
:107FE0001150E9F7F2DF1F91089580E0E8DFEE27F6
:047FF000FF270994CA
:027FFE00040479
:00000001FF
